:040000006F108018E5
:100004000000000000000000080200000A020000D6
:100014000000000032110000000000000000000099
:100024003411000036110000000000000000000040
:1000340038110000000000003A1100000000000028
:100044003C1100003E1100004011000000000000BF
:100054004211000044110000461100004811000044
:100064004A1100004C1100004E1100005011000014
:1000740052110000541100005611000058110000E4
:100084005A1100005C1100005E11000060110000B4
:100094006211000064110000661100006811000084
:1000A4006A1100006C1100006E1100007011000054
:1000B4007211000074110000761100007811000024
:1000C4007A110000B20E00007E11000080110000C1
:1000D4008211000084110000B2030000000000003F
:1000E400000000000000000000000000000000000C
:0C00F40000000000000000000000000000
:10010000397101436EC619A0397141536AC866CA74
:1001100062CC5ECE19A0397101535AD056D252D456
:100120004ED64AD826DA22DC06DE330161408282CE
:1001300041114AC026C222C406C68282B24D410184
:10014000024D924C224CB24B4101024B924A224A40
:10015000B2494101024992442244B24041018280A5
:100160003D432A876373C3029377F700BDEFADE584
:10017000937606FF3D8ABA960CC34CC30CC74CC796
:100180004107E36BD7FE11E28280B306C3408A06C3
:100190009702000096966780A6002307B700A30683
:1001A000B7002306B700A305B7002305B700A304D3
:1001B000B7002304B700A303B7002303B700A302CB
:1001C000B7002302B700A301B7002301B700A300C3
:1001D000B7002300B700828093F5F50F9396850052
:1001E000D58D93960501D58D61B79396270097021B
:1001F000000096968682E78086FA9680C1171D8F4A
:100200003E96E374C3F8A5B701A001A0EFF2BFF0DA
:100210000545EF10A0313924EF10005D716513051D
:100220000520EF10C065B707002083A5070B373501
:1002300000001305C5D7EF107017EF100016AA8540
:1002400037350000130505D9EF105016373500007B
:10025000130505DAEF10D026EF10A07DEF10007522
:10026000EF10206D51249305F0021305703E3709FD
:1002700000408D69EF00906513090940138441889F
:10028000938949D60545EF10205C014685454A858E
:10029000EF10C04683C6A18483C7D1840546854537
:1002A000B387F6404A85A386D1842387F184EF1073
:1002B000E0441C3403C7E1849546BA9703C7B18470
:1002C00093F7F70F1CB49384B18463E6E6020A0740
:1002D0004E97184302871E2C898B81C785479CA0A7
:1002E00019A837350000130505DBEF10701D3C2CF5
:1002F000F19B3CAC212E9C20D1D7EF00504D59B73B
:100300003C2C858BEDDB37350000130545DCEF1009
:10031000301B8947E9B73C2C898BF1DF373500006A
:100320001305C5DDEF10D0198D4755BF1145EF10EE
:100330002079138B8184AA852310AB003735000008
:10034000130545DFEF10900603570B008567938771
:1003500087BBE3F2E7FA91479CA0A304040061BFC6
:1003600013073006E379F7F8EF00A06E3735000089
:10037000130545E0EF10D014954795B713073006E5
:10038000E37BF7F61145EF10A073138B8184AA85E8
:100390002310AB0037350000130545DFEF101001C7
:1003A00003570B009307F07CE3E7E7F4EF00806F5F
:1003B000A5BF411122C637040040854513050440FE
:1003C000EF10E03419C99387A1849823854513055C
:1003D0000440050798A3EF10003532444101730033
:1003E0002030B71702409843B70600F99386F6F518
:1003F0001367170098C3D84313670705D8C3D843BA
:10040000758FD8C3372702401443F19A14C314439D
:1004100093E6260014C3D8431377F7F0D8C3D84324
:10042000D8C38280B7160240DC42918313F7F700ED
:10043000B707002093870700BA979C23D4423777E9
:10044000DC0293F7F70F130707C093F6060833563D
:10045000F70099E23356F702B707002023A8C70A2E
:100460008280B77702409A23136727009AA39A23C2
:1004700042074183759B420741839AA396231967DC
:100480002107558F9AA31387418A420741839AAB6C
:10049000D8231377E70FD8A313077007BAA3D8237D
:1004A00013672700D8A3B7E700E03707020023A2AD
:1004B000E710828093874188982F1377F7FC98AFD5
:1004C000B77702401307200ADAA7FAA78280EFF273
:1004D0003FC6CD37938741889A2FFD76ED16758FED
:1004E00023A007009AAFBDB1EFF29FC4411185452B
:1004F000414502C202C402C6EF10C013854505453E
:10050000EF104013854537050200EF10C010B167AA
:1005100005443EC24C0091473715014022C43EC6F7
:10052000EF005068370701401C4F1306000293E7A5
:1005300007301CCFB777024021479AA3715798B76D
:100540008145138541882939138541861146938554
:10055000418000A10505EF10405A953F1937410130
:10056000D5BE83D7C189898B99C301458280EFF2BB
:100570003FBC377402405E240945C207C18393F72C
:10058000E7F1C207C1835EA45E2493E707045EA47B
:10059000EF10202846245E240945C204C207C18307
:1005A00093F7E7F1C207C1835EA45E24C18093E79D
:1005B000070A5EA47E24C207C18393F7E7F1C2074E
:1005C000C1837EA47E2493E707047EA4EF106024F9
:1005D0006A247E244205C207C18393F7E7F1C2076C
:1005E000C1837EA47E24418193E7070A7EA45E2412
:1005F000898B99CB85889377150089C41345F5FFBE
:10060000058921A0094591E30145A9B6EFF25FB242
:10061000938741889E2F898B99EFA1371384418856
:10062000AA8409C93C241147850793F7F70F63652E
:10063000F700BE8424A439BE1E2C2305040093E7D2
:1006400027001EAC918BE5FB377702405E27898B34
:1006500081E77E27898B8DCF854737770240639C62
:10066000F4021E2305458145C207C183ED9BC207E5
:10067000C1831EA3EF1000380145EF1080303735DD
:1006800000008947A685130505E51CC0EF10005240
:10069000231704004DB71E230145854593E7470006
:1006A0001EA3EF1020350545C9BFB77702409A2336
:1006B000118B51CFFA2713670701FAA7B7770240CA
:1006C0001307F004C205BAA3C1818EAB4206D4B3AE
:1006D0004182F2A3D82313671700D8A39837A384C5
:1006E0000700D82313672700D8A32DC198376207C6
:1006F0006187E35D07FE98371367070898B79A2369
:10070000118B39CBFA27420741833D9B4207418336
:10071000FAA7B77702409A23136727009AA39A2370
:1007200042074183759B420741839AA3D8231377DD
:10073000E70FD8A31387418A420741839AAB130777
:100740007007BAA3D82313672700D8A38280DA27BB
:1007500013670701DAA79DB7DA27420741833D9B5C
:1007600042074183DAA775B7EFF21F9A1387818C8E
:10077000143393D725009207D58F1CB3814793F686
:10078000F70F0507639ED5068905114993F4F50F08
:10079000377A0240994A7D191379F90F630E0904DB
:1007A000B7E700E03707020023A2E7188146268654
:1007B0009385818C0545D53D1304A00F854B7D1491
:1007C0001374F40F69D883479A0093F707029DCFFB
:1007D00083479A0093E70702A304FA008357AA000D
:1007E0006396FA0283C7418AFD8B639177039387EF
:1007F00041889827090798A7AD311335190089B2A8
:10080000B306F5009422850714B395BF0D45EF108C
:10081000400075B793864188962E2384B18C13F6D9
:1008200086001387418809C693E505022384B18CAD
:1008300003C8818C13F606049365080419C29365F6
:10084000080818272384B18CC18A398B9387818C3F
:1008500081EA98B309C59833136707F898B3828083
:1008600013671700FDB793F7350091EBF146854705
:1008700063E8B600EFF2DF8BC53D6FF0BF8D8547B3
:100880003E858280EFF25F880905114437EA00E077
:100890009379F50F377902407D141374F40F21CC4E
:1008A000B70702002322FA1881464E869385818C71
:1008B0000545E53B9304A00F994B054CFD1493F4BB
:1008C000F40FF9D88347990093F7070285CB834744
:1008D000990093E70702A304F9008357A900639FD7
:1008E000FB0083C7418AFD8B639A87019387418808
:1008F0009827090798A7B5366FF09F840D45EF003C
:1009000050716DBF7D150A05AA959C31B821A207CB
:100910004207BA979821BA9719C613F7F73FA94526
:100920003307B7021AA289CAA98393F7F73F1307BF
:100930002003B387E7029EA28280EFF26FFF83C796
:10094000C184411163E4A7002A8401ED373400001B
:10095000130504E1EF10C0361305401FEF00D06E01
:10096000C5BF93172500F51793854186BE9511469F
:100970001385618AEF1060189306E100700093857B
:10098000618A0545413730872C86373500001305CD
:1009900045E2EF10A02189450145AD3D1387418A0D
:1009A00034233C331204139626008D8BD18F93F79A
:1009B000F70F3CB38A079982B18BD58F136434004B
:1009C00091451385618A40B35CA3793B194711C1F6
:1009D0007D479387418898C39A2F856623970700A0
:1009E000558F9AAF41016FF0EFF6EFF26FF4138776
:1009F000418A18339388418A8146135847001378F7
:100A000078009387418A130E000C93F5F60F368514
:100A10001396260063FA050103C358008506910862
:100A20001373030CE313C3FF2386B1849306E0031F
:100A3000D4B393164500138541860CA11377F7F8BC
:100A4000558F9385618A050598B3EF10000B6FF001
:100A50006FF0EFF2EFED9387418894279D4713875E
:100A6000418863F4D7002304070083C7518A1827FD
:100A7000858B93B71700060793870702D98F1385D5
:100A8000818C1CB183C7218521469A0793E7F70023
:100A90001CA1938541810905EF1020062945DD330E
:100AA0006FF04FEBEFF2CFE89387418894279D4793
:100AB0001387418863F4D7002304070083C7518A52
:100AC0001827858B93B71700060793870702D98FDE
:100AD0001385818C1CB183C7218521469A0793E732
:100AE000F7001CA19385C1810905EF10000129457C
:100AF000513B6FF02FE6EFF2AFE31387418A3C23BF
:100B00001823FD8B137707FCFD172389E18493F7E6
:100B1000F70F4147636DF7140D678A07130747E620
:100B2000BA979C431384418A8287373500001305A6
:100B30000507EF10E0183C301385818C3CB15E2036
:100B400003C7C1885EA13C200607B705002093E7D4
:100B500007043CA11C30414693850501858B93B762
:100B6000170093870705D98F1CB11C20190593F72F
:100B700007FC93E7F700230DF5FEEF0010785945C9
:100B80001133F5A03735000013050509EF104013A8
:100B900038309387818CB8B35A2083C6C188DAA3D2
:100BA0003820860613670704B8A31830058B13375F
:100BB000170013070702558F98B31820137707FC07
:100BC0001367F70098A31387018116232945F6A31D
:100BD0003A239AA775B7373500001305C50AEF10F9
:100BE000200E38309387818CB8B35A2083C6C188D1
:100BF000DAA33820860613670704B8A31830058BDC
:100C00001337170013070702558F98B3182013776F
:100C100007FC1367F70098A31387C1807DB73735AA
:100C200000001305850CEF10A0093C301387818C60
:100C30003CB35E2083C6C1885EA33C20860693E752
:100C400007043CA31C30858B93B71700C107D58FD1
:100C50001CB31C2093F707FC93E7F7001CA319456E
:100C600005B7373500001305050EEF1060056FF06E
:100C70006FCE373500001305C50EC5BF37350000F0
:100C80001305850FEF10C00338309387818CB8B3FC
:100C90005A2083C6C188DAA3382086061367070462
:100CA000B8A31830058B1337170013070702558FA9
:100CB00098B31820137707FC1367F70098A31387DE
:100CC000818021B73735000013054511EF00507FB3
:100CD0003C301387818C3CB35E20938641885EA3B1
:100CE0003C20902693E707043CA31C300606858B26
:100CF00093B71700C107D18F1CB31C2093F707FCD3
:100D000093E7F7001CA3BC2E93E72700BCAE81BF7E
:100D1000EFF26FC003C4418A454741117D889307B4
:100D2000F4FF93F7F70F6361F7180D678A0713074E
:100D300087EABA979C43828737350000130505F090
:100D40009384418AEF00D0771545EF00F02F938709
:100D500041889A2F89046D9B9AAF4139373500003D
:100D6000130545F1EF00D075B739000083C7C18482
:100D700063F787000545D13641016FF00FBD22852D
:100D80009306E1007000A685B53E3087A2851385E5
:100D900089F20504EF0090611374F40FC1BF373579
:100DA0000000130585F3EF00B071254723A2E18809
:100DB0009387418823970700C1B737350000130593
:100DC000C5F4EF00F06F138741883C2F37350000E2
:100DD000130505F693E717003CAFEF00706EA947C7
:100DE00023A2F18851BF37350000130505F7EF0046
:100DF000306D59B737350000130545F8EF00506CDA
:100E00000545EF00702491450145EFF0BFA09145E5
:100E100013854182EFF03FA585B7373500001305F4
:100E2000C5F9EF00F0690545EF0010228D45014539
:100E3000EFF05F9E81450145F1BF37350000130596
:100E400045FBEF00F0670545EF001020854505459F
:100E5000EFF05F9C37050020F145130505025DBFEB
:100E600037350000130505FDEF0090650545EF00DF
:100E7000B01D89450545EFF0FF99A1451385818295
:100E800051BF37350000130585FEEF00706305453F
:100E9000EF00901B914561BF373500001305050039
:100EA000EF0010628939C9BD373500001305C5014F
:100EB0003DBFB77702409837411122C626C4137749
:100EC00007021384418835CB98378546136707029C
:100ED00098B798370D8B6312D706B6271546637EF1
:100EE000D604BE2799469384418A6396F6009C20D7
:100EF000FD8B6389E70C7945EF00B011938601857E
:100F0000184C930710049CA29C301583058BB98B59
:100F1000D98F9CB2377702401E23A1660145D58F39
:100F20001EA38146094693850185EFF00FF83735FA
:100F3000000013054503EF00B058B777024098371B
:100F400062076187635E0702DA27B706020042077D
:100F500041833D9B42074183DAA7FA274207418339
:100F60003D9B42074183FAA737E700E02322D718C9
:100F70001A2C136717001AAC98371367070898B72D
:100F8000B777024098371377070409CF983713676C
:100F9000070498B7EFF00FD23735000013050506A8
:100FA000EF0010521E2C0D478D8B6398E7008D3398
:100FB000EFF02FCB1E2CF99B1EAC3244A244410112
:100FC000730020303735000013058504ADB7EFF20C
:100FD0002F9683A741882547A286638DE706636520
:100FE000F7020947638FE70219476385E70605475C
:100FF000639AE70037350000130505EFEF00504C0A
:10100000EFF0EFCC6FF00F957D47638BE70613078A
:1010100000026389E7082947E396E7FE23A20188D7
:10102000D5B71387418883C6E1847E27B697C20768
:10103000C1837EA79306703EE3F6F6FC5C3B9546C3
:10104000850793F7F70F63E4F6005CBB65BFA30A5F
:101050000700E9B71387418803C6E1847E27B2976A
:10106000C207C1837EA71306301FE37DF6F81E2F4B
:1010700023170700ED9B1EAFFD4723A2F18859B748
:10108000B5450145EFF00FF981450145EFF0AFFDA2
:101090003335A000160523A2A188138441882317A5
:1010A00004008DB7938441889E2C9306900A0146D4
:1010B00093E74700814505459EACEFF00FDFEFF069
:1010C0004FBA23A20188239704002DBFEFF24F8669
:1010D0000111AA842E840945854502CA02CC231E2B
:1010E000010002C602C8B523E082370400404C0864
:1010F00013050440E484231D0100231B0100230E7B
:1011000001007123930760037C868D475C8768002C
:1011100085473EC839290546130504408545F92B06
:101120008545130504407D2B05616FF0AF8201A05A
:1011300001A001A001A001A001A001A001A001A0A7
:1011400001A001A001A001A001A001A001A001A097
:1011500001A001A001A001A001A001A001A001A087
:1011600001A001A001A001A001A001A001A001A077
:1011700001A001A001A001A001A001A001A001A067
:1011800001A001A001A001A097F1FF1F938181722E
:1011900017410020130101E717250000130545033F
:1011A00097F5FF1F938505E61386818463FAC500D2
:1011B0008322050023A0550011059105E3EAC5FE31
:1011C000138581849385018F6377B5002320050003
:1011D0001105E36DB5FEFD42739002BC8D42739024
:1011E00042809302800873A0023097F2FFFF93823F
:1011F000A2E193E2320073905230EFF08F9E97F2AB
:10120000FFFF9382E2007390123473002030B727FF
:10121000014093870740631EF500EFE27FF18545AB
:1012200013050020B12181451305002091216FE0B5
:101230007FF282805C413707F1E01307F7EF944DAE
:101240007D8F9C41D58FD44DD58FD441A206D58FAB
:10125000D98F5CC11C4537F7F1FF1307D77FD44501
:101260007D8F9C49D58F94458606D58FD98F1CC517
:101270005C55370710FF7D177D8FDC29FD1793F72D
:10128000F70FD207D98F5CD582801C4589C593E7BB
:1012900017001CC58280F99BEDBF1C4589C593E7EB
:1012A00007101CC5828093F7F7EFE5BF1C4591C579
:1012B00037075000D98F1CC582803707B0FF7D17D4
:1012C000F98FD5BFA54763F7B7048D47138765FF2F
:1012D0003307F7020328C5009D47B397E70093C77C
:1012E000F7FFB3F70701B396E600DD8E54C59947C3
:1012F00063E3C70495477D163306F6025859FD4748
:10130000B397C70093C7F7FFF98F3396C5005D8E7B
:1013100050D982800D473387E502032805019D4798
:10132000B397E70093C7F7FFB3F70701B396E6005B
:10133000DD8E14C96DBFB14763E2C70295476516DC
:101340003306F6021859FD47B397C70093C7F7FF56
:10135000F98F3396C5005D8E10D9828095474D1662
:101360003306F6025855FD47B397C70093C7F7FFFA
:10137000F98FB395C500DD8D4CD582806845420557
:101380004181828008416D8D3335A00082803C49C7
:1013900093F707E0DD8D2CC98280B7F7FF1F03A507
:1013A000477082809845937707011378F70081C7CB
:1013B000DC413368F8009441814713F6F60F39C2D7
:1013C0001C410146854E3D4F930F800293028004DD
:1013D000214EB398CE00B3F516016391B8021313F2
:1013E0002600B3156F0093C5F5FFED8F331368002A
:1013F000B367F3006317F70D232A15010506E31AF7
:10140000C6FD1CC14166130606F0758E3DC2371637
:10141000014093050680631BB50A83A70183A1459C
:10142000854E3D4F930F800293028004414E3393CB
:10143000BE0033F666006312C30213962500011640
:10144000B318CF0093C8F8FFB3F7F8003316C800FD
:10145000D18F6319F709232A65008505E399C5FD36
:10146000371601405CC1930506806312B50823A8B6
:10147000F182C16763E6F604504D8147054E3D4F4A
:10148000930F800293028004A14E93850701B31548
:10149000BE00B3F8B6006391150393982700331389
:1014A0001F011343F3FF3376C300B318180133E66B
:1014B000C800631AF7054CC98507E398D7FD50CDDE
:1014C0008280E31D57F2232815010DBF930506C046
:1014D0006315B50083A7418399B7E312C5F483A7C9
:1014E000818335BFE31B57F623286500BDB79305FD
:1014F00006C06315B50023AAF182A5BFE31BC5F69C
:1015000023ACF182BDB7E31957FAB315FE000CD135
:1015100065B793970501C18391C30CC9C16763E4A3
:10152000F500C1810CD182804CC9828023AAA1849C
:101530008280938741859443182181E63C2192075C
:1015400021A894430546639FC6023C2110319207AF
:101550006314D60093E707F8B7E600E093F7F70FB8
:10156000BA962380F6408546935757003397E60096
:101570005441A5C2938707048A07B7E600E0B697EF
:1015800098C382808C4389466391D50214313C21F3
:101590006365D6008A06B6975DB79386E6038A062A
:1015A000B69793F7F70F920775B790438D46631C74
:1015B000D60014313C216364D6008606E9BF9386C9
:1015C000C6078606F1BF94439147E39EF6F81C31A7
:1015D000BDB7938707064DB7B777DC02938707C07F
:1015E0001CC137160240584211839376F700370723
:1015F00000201307C70336971423504293F6F60FC3
:101600001376060833D7D70019E233D7D70258C16B
:1016100018C558C5828099C5371702405C4B5D8D4F
:1016200048CB8280B7170240D84B1345F5FF798D20
:10163000C8CB828099C5371702401C4F5D8D08CFFB
:101640008280B7170240984F1345F5FF798D88CFF8
:10165000828099C5371702405C4F5D8D48CF8280EC
:10166000B7170240D84F1345F5FF798DC8CF828058
:1016700099C5371702405C475D8D48C78280B71710
:101680000240D8471345F5FF798DC8C782801E21D7
:1016900037370140130707C0C207C1836306E5005F
:1016A000370700406316E500BA2193F7F7F8D98FA2
:1016B000FA2193F7F7CFC207C183D98F1EA1DE218C
:1016C0005EB59E211EB5B7370140938707C06306FC
:1016D000F500B70700406314F5009C251EB9854747
:1016E0005EA982801E2189C593E717001EA1828012
:1016F000C207C183F99BC207C183CDBF5E2501C666
:10170000DD8D4EA5828093C5F5FFFD8DDDBF1E29C1
:101710004A25ED8F4205418189C76D8D3335A00083
:1017200082800145828093C5F5FFC205C1810EA963
:101730008280EFE2FF9F1629F577FD17F58FF621DE
:10174000DA250111D58F1EA95625FD779387379F7E
:10175000F58FD6212A842EC6D58F9625D58FB6250E
:10176000D58F5EA55E29C207C18393F7F7CFD98FC6
:101770005EA908089535B747014093870780B245B1
:10178000631EF402F2476547B387E7029841930668
:1017900040060A07B3D7E70233D7D702B3F7D70219
:1017A0001207920793872703B3D7D702BD8BD98F30
:1017B000C207C1831EA405616FE0DF99E247E1B76C
:1017C00091C55E250967D98F5EA582805A25F97774
:1017D000FD17F98FD5BF93F5F51F4EA182800A2121
:1017E0006D8D3335A0008280B707002083A7070BDB
:1017F00037177A0013070720B3D7E70293F7F70FDD
:10180000238DF1841307803EB387E702239CF18484
:101810008280B7F700E0D8438146799BD8C303C7DD
:10182000A1853306A70290CBD4CB98431367070159
:1018300098C398431367170298C3D843058B75DF85
:101840009843799B98C38280B7F700E0D8438146DC
:10185000799BD8C303D781853306A70290CBD4CB1D
:1018600098431367070198C398431367170298C3F7
:10187000D843058B75DF9843799B98C38280EFE24C
:101880003F8B2A8411650111854521056533930736
:1018900000403EC23715014085473EC44C00E14739
:1018A000130505C03EC6EFF0FFAF22C83744014024
:1018B000B70708000C08130504803ECC02CA231E9B
:1018C0000100853D854513050480DD3D05616FE020
:1018D0007F88EFE25F84B7440140AE8932890144DA
:1018E00093840480634524014A856FE01F86930535
:1018F00000042685ED3565DDB38789008385070003
:1019000026850504C205C181F935E9BF1387C18366
:101910001C439386018F3E95636BD500B75600201C
:101920009386068063E5A60008C33E858280FD5746
:10193000EDBFEFE2EFFF41118545114502C202C440
:1019400002C6CD399D47371401403EC2C1473EC64D
:101950004C008547130504803EC4EFF0BFA4130577
:1019600004808545EFF0FFBA130504808945EFF048
:101970005FBA914513050480EFF0BFB941016FE0F4
:101980006FFDEFE2EFFA85479145631AF5003715D1
:10199000014013050580EFF0DFB76FE0AFFB3715AF
:1019A000014013050580EFF03FB8C5BFEFE24FF8E7
:1019B00041118545114502C202C402C6EFF09FC71E
:1019C000E167371401403EC2C1473EC64C0085471F
:1019D000130504803EC4EFF0FF9C13050480896565
:1019E000EFF03FB3916513050480EFF09FB2410122
:1019F0006FE04FF6EFE2CFF32E8489650DE13715E6
:101A0000014013050580EFF0DFB037150140916507
:101A10001305058001ECEFF0DFAF6FE0AFF3371592
:101A2000014013050580EFF03FB0C5B7EFF0DFAF21
:101A3000EDB7EFE2EFEF7971130600028145080878
:101A4000EFE00FF28545114502C202C402C6EFF075
:101A50007FBE854513050020EFF0DFBD371501403F
:101A6000A1474C0013050580372401403EC202C641
:101A7000EFF05F9313050440EFF06FF91305044096
:101A800093055002EFF0BF90854737070E000C0812
:101A9000130504403ECC3ACE2302F10202C802CA2A
:101AA00002D0EFF02FF9130504408545EFF0EFFE6B
:101AB000854513050440EFF04FFD45616FE08FE968
:101AC000EFE20FE737240140AA859D46054613053E
:101AD0000440EFF02FFF854513050440EFF00FFDA4
:101AE0009304044089452685EFF0DF8965DD130501
:101AF0000440EFF0BF886FE0EFE5B3C7A5008D8B22
:101B00003307C50081E78D4763EDC700AA87637E71
:101B1000E508942185078505A38FD7FEE3EBE7FE53
:101B2000828093763500AA8789CA94218507850526
:101B3000A38FD7FE93F63700C5BF9376C7FF1386F2
:101B400006FE63F0C70683A3050083A2450083AFAA
:101B5000850003AFC50083AE050103AE450103A3B5
:101B6000850183A8C5019385450223A0770003A8BA
:101B7000C5FF23A2570023A4F70123A6E70123A84A
:101B8000D70123AAC70123AC670023AE17019387AF
:101B9000470223AE07FF75B790419107910523AE29
:101BA000C7FEE3EBD7FEE3E6E7F6828039713EDA63
:101BB0002ED232D436D63AD842DC46DE9387018420
:101BC00022CC804326CA06CEAA8409C41C4C99E3C1
:101BD0002285ED290C4454102686228536C6EF0056
:101BE0007012F2406244D24421618280011126CAFF
:101BF0004AC806CE22CC4EC652C4AA842E8901C53C
:101C00001C4D91E3E1219C4C804499E326857D297C
:101C10009717000093870754631BF402C0405E24AB
:101C2000A18BB1C71C48A1C7FD59294A1C44834553
:101C30000900FD17B1E91CC463DD07062286A9452A
:101C400026856120FD576308F502294535A09717C1
:101C50000000938727526314F4008044C9B7971794
:101C600000009387274DE31CF4FAC0444DBFA285C2
:101C70002685112A55D97D55F2406244D244424905
:101C8000B249224A056182801CC4050963D7070056
:101C9000184C63CAE700638845011C40138717008E
:101CA00018C08CA361B7228626850520E31035F97C
:101CB000D9B71C401387170018C0294798A371B7DC
:101CC00093870184AA85884315B7011122CC26CABF
:101CD0004AC806CE4EC6AA842E89328401C51C4D40
:101CE00091E3ED26971700009387C7466317F40624
:101CF000C0401C4C1CC45E24A18BC1C31C48B5CF82
:101D00001C4808409379F90F1379F90F1D8D5C4831
:101D10006346F500A2852685692C25E51C4405054A
:101D2000FD171CC41C401387170018C023803701FF
:101D30005C486388A7005E24858B81CBA947631626
:101D4000F900A2852685B5240DEDF24062444A854E
:101D5000D2444249B24905618280971700009387B7
:101D600067416314F400804469B7971700009387B4
:101D7000673CE310F4F8C044ADBFA285268521205E
:101D800041D17D59D9B741119387018426C284433B
:101D900022C44AC006C62A892E8489C49C4C99E371
:101DA00026852D26971700009387C73A631BF402F8
:101DB000C0400317C40093170701C18393F687003F
:101DC000ADEA93F6070195EEA5472320F9001367C6
:101DD00007045AA47D55B24022449244024941016D
:101DE0008280971700009387E7386314F4008044DB
:101DF000C9B7971700009387E733E31CF4FAC04490
:101E00004DBF918B9DC34C5889C99307440463848B
:101E1000F5004A853123232A04025E24232204008C
:101E200093F7B7FD5EA41C481CC05E2493E78700AF
:101E30005EA41C4899EB5E241307002093F7072843
:101E40006385E700A2854A85A1215E2413F7170068
:101E50001DC35C4823240400B307F0401CCC1C487D
:101E60000145B5FB8317C40013F707082DD793E787
:101E700007045EA485B7898B014791E3584818C4CD
:101E8000F9BFDE25011122CC26CA06CE4AC84EC6AD
:101E900013F78700AA842E8479EBD841634DE000C4
:101EA000B841634AE0000145F2406244D2444249ED
:101EB000B2490561828058547DD703A904009396E6
:101EC000370123A0040063DB060670485E24918B73
:101ED00099C75C401D8E5C5899C33C401D8E5C5474
:101EE0000C50814626858297FD575A24631DF500C4
:101EF0009440F54763E8D706B70740208507B3D776
:101F0000D700858BA5C31C48232204001CC093174F
:101F1000370163D80700FD576314F5009C4091E337
:101F200068C84C5823A02401BDDD93074404638492
:101F3000F5002685F526232A0402B5B70C50014684
:101F4000854626850297FD572A86E311F5F89C40C1
:101F5000B5DF75476385E70059476393E70423A01E
:101F6000240191B7136707045AA47D5535BF83A98F
:101F70000501E38A09F203A905008D8B23A0350131
:101F800033093941014791E3D84918C4E35D20F191
:101F90001C540C50CA864E86268582976347A00043
:101FA0005E2493E707045EA4C9B7AA993309A94040
:101FB000F1BF9C49B9CF011122CC06CE2A8411C5AC
:101FC0001C4D81E72EC61922B24597170000938752
:101FD0006718639BF5004C408397C50095C7228521
:101FE0006244F240056171BD97170000938787181E
:101FF0006394F5000C44CDB79717000093878713BF
:10200000E39CF5FC4C44C9BFF240624401450561C4
:10201000828001458280411122C406C62A844EA5D1
:1020200072A5232005002322050023240500232276
:10203000050623280500232A0500232C0500214638
:1020400081451305C505EFE0AF9197170000938711
:1020500087B15CD0971700009387A7B31CD497175C
:102060000000938787B75CD4971700009387E7B980
:1020700000D01CD8B2402244410182809705000064
:10208000938565F3A9A2411126C2130680069384A5
:10209000F5FFB384C4024AC02E8922C406C69385C4
:1020A00044071D262A8401CD232005002322250173
:1020B000310508C4138684068145EFE06F8A2285C6
:1020C000B240224492440249410182801C4DADE35A
:1020D000411106C622C497070000938767FA1CD5F2
:1020E000938741849C432324050423260504232845
:1020F00005046314F50085471CCD2A841D2848C0BB
:102100002285052808C422852D2048C44840014660
:102110009145113708440546A545F53D4844094613
:10212000C945D53D85471CCCB2402244410182803F
:10213000828041119387418426C284434AC006C6E7
:102140009C4C22C42A8999E32685493793848404C8
:102150008044DC40FD1763D607009C40B9CF844023
:10216000C5BF0317C40039E7C177850723220406DA
:102170002320040023220400232404005CC4232819
:102180000400232A0400232C040021468145130562
:10219000C405EFD0FFFC232A0402232C04022324CD
:1021A0000404232604042285B240224492440249B6
:1021B000410182801304840671BF91454A85E1354F
:1021C00088C051FDB1472320F9000144E9BF79716E
:1021D00022D44AD052CC56CA5AC85EC606D626D297
:1021E0004ECE2A8AAE8A130485040149054BFD5B55
:1021F00009ECB25022544A8592540259F249624A7B
:10220000D24A424BB24B4561828004448329440048
:10221000FD1963D409000040E1BFDE24637BFB00AD
:102220008397E40063877701A6855285829A336994
:10223000A90093848406E9BF1971A6DAAE84839558
:10224000E500A2DC86DE328463DB0500DE2423A009
:10225000060093F7070885E7930700401DA03008A4
:1022600036C6EF001020B246E34205FE7247BD6756
:10227000F98F7977BA9793B717009CC2F1BF93078C
:1022800000041CC0F6506654D65401450961828092
:10229000DE25011122CC06CE26CA4AC8898B2E849F
:1022A00089CF930774041CC01CC885475CC8F240E2
:1022B0006244D24442490561828074003000AA849D
:1022C000A53FA2452A892685012219E98317C40062
:1022D00013F7072069FFF19B93E727005EA4D1B7AE
:1022E000970700009387C7D99CD45E2408C008C80C
:1022F00093E707085EA4A2475CC8B24781CF831565
:10230000E4002685EF00901811C55E24F19B93E749
:1023100017005EA45E243369F9002316240141BF2F
:10232000DDC183A7C5FF411122C406C626C213849E
:10233000C5FF63D307003E94AA84EF00F01B938788
:10234000C1859C4381EF2322040023AE8184224473
:10235000B2402685924441016F00301A637EF4003A
:1023600014403307D4006396E7009843DC43369764
:1023700018C05CC0D9BFBA87D84319C3E37DE4FE57
:1023800094433386D700631F86001040B29694C3EF
:102390003386D700E31DC7FA10435843B29694C35F
:1023A000D8C375B76375C400B1479CC04DB7104022
:1023B000B306C4006316D70014435843B29614C042
:1023C00058C0C0C369B78280011126CA9384350002
:1023D000F19806CE22CC4AC84EC6A104B14763F399
:1023E000F404B14463E2B4042A89EF00F010938747
:1023F000C18598433A8439E0938701869C4391E7ED
:1024000081454A85152F23A0A186A6854A852D27BB
:10241000FD5963193507B1472320F9004A85EF00BC
:10242000D00D29A0E3D004FCB1471CC10145F24006
:102430006244D2444249B249056182801C40858F82
:1024400063CF0702AD4663F6F6001CC03E9404C09D
:1024500031A05C406313870223AEF1844A85EF000C
:10246000D0091305B4009307440061993307F54080
:102470005DDF3A94898F1CC05DBF5CC3C5B72287FE
:10248000404095BF130435007198E30285FCB30505
:10249000A4404A855525E31C35FBB5BF1C46FD17F6
:1024A0001CC663DA0700184E63C5E700A9476394AA
:1024B000F5006FF09F811C422E851387170018C20C
:1024C0008CA38280011122CC26CA4AC84EC652C4AF
:1024D00006CE2A89AE893284B304D6007D5A6314AD
:1024E0009400014501A80C204E864A85453F05040D
:1024F000E31745FFF2406244D2444249B249224ABE
:1025000005618280357122CD26CB4AC94EC706CFE0
:1025100052C556C35AC1DEDEE2DCE6DAAA89AE84D1
:102520003289368409C51C4D99E3EFF03FBA9717FD
:102530000000938727C26397F40C83A44900DE242C
:10254000A18BFDC39C48EDC393070002A304F102D5
:102550009307000302D22305F10222C6930B500217
:10256000971A0000938A0AC3054C294B4A841C2001
:1025700099C3639E770DB30C2441638D0C00E686EE
:102580004A86A6854E853D3FFD57630FF51C925642
:10259000E69636D21C206389071CFD5713091400E8
:1025A00002C802CE3ECA02CCA309010482D48345EC
:1025B0000900154656852D2713041900C24751E915
:1025C00013F7070109C713070002A309E10413F772
:1025D000870009C71307B002A309E1048346090075
:1025E0001307A002638FE606F2474A848146254618
:1025F000182093051400130707FD6377E60AB5CA90
:102600003ECE85A8971700009387C7B66395F40060
:1026100083A489002DB7971700009387A7B1E39093
:10262000F4F283A4C90021BFA6854E85EFF0AFF573
:1026300001DD7D55FA406A44DA444A49BA492A4ADA
:102640009A4A0A4BF65B665CD65C0D618280050493
:1026500039BF330555413315AC00C98F3EC82289B7
:10266000B9B7324793064700184336C66347070297
:102670003ACE18209307E002631DF7041830930741
:10268000A002631BF702B2470904138747009C436B
:102690003AC663C107023ECA2DA83307E04093E75C
:1026A00027003ACE3EC8F1B7B387670385462E842C
:1026B000BA973DBFFD57C5B7050402CA8146814799
:1026C0002546182093051400130707FD6374E606DA
:1026D000F9F20C200D4617150000130525AC09254D
:1026E00011CD97170000938767AB1D8D93070004EA
:1026F000B397A700424505045D8D2AC80C201946F2
:10270000171500001305C5A9130914002304B1020D
:10271000C12B35C197E7FFFF9387C78E95E74247E7
:10272000B2471377071009CF91073EC69257D29749
:102730003ED22DBDB387670385462E84BA9751B725
:102740009D07E19BA107D5B7780097060000938607
:10275000A6D726860C084E8597000000E7000000EB
:10276000FD572A8AE314F5FCDE2493F70704E3926D
:1027700007EC1255C1B57800970600009386C6D4C1
:1027800026860C084E85012AE1BF797156CA9C49FC
:10279000BA8A984522D426D24ECE52CC06D64AD0FA
:1027A0005AC85EC6AA892E84B284368A63D3E700EB
:1027B000BA879CC00347340419C385079CC01C40DA
:1027C00093F7070281C79C4089079CC00329040036
:1027D00013796900631A0900130B9401FD5B5C44D3
:1027E0009840998F634CF9041C408346340493F756
:1027F0000702B336D000A5EB13063404D2854E850C
:10280000829AFD576303F5041C4011469840998B4A
:10281000544481446397C700B384E64063D3040003
:1028200081441C4418486354F700998FBE940149B1
:1028300069047D5B63982405014509A885465A868D
:10284000D2854E85829A631E75017D55B250225401
:1028500092540259F249624AD24A424BB24B456104
:1028600082800509ADBF3307D40013060003A3011E
:10287000C7040347540493871600A2978906A381CF
:10288000E7049DBF85462286D2854E85829AE30E57
:1028900065FB050945B7797122D426D24AD04ECEC0
:1028A00006D652CC56CA5AC8B689942D93079006BC
:1028B0003289AA842E8413863504638DF60263E27E
:1028C000D706930780056386F61863EDD700638EFD
:1028D000062093073004638EF60A930A240423012A
:1028E000D404C9A0930730066385F60A930740060F
:1028F000E395F6FE1C40084393F607089305450050
:10290000C5C61C410CC363D807001307D002B30728
:10291000F040A301E404971600009386E688294757
:1029200065A8930700076382F61663E5D70293074D
:10293000E0066389F6189307F006E390F6FA0C4078
:102940001C4313F80508138547006307080608C3EE
:102950009C4385A893075007E383F6FE93078007FF
:102960006389F61293073007E399F6F61C43D041CA
:1029700081459386470014C383AA070056858D2698
:1029800001C53305554148C05C401CC8A30104047F
:1029900061A81C43930A2404938647009C4314C3F4
:1029A0002301F4048547D5B793F607041C410CC3F3
:1029B000B9DAC207C18781BF93F5050408C3C9D935
:1029C0009E231307F0066387E60E970600009386A2
:1029D000A67D2947A30104044C400CC463C505002F
:1029E00008406D9908C099E3B28A89CDB28AB3F5DF
:1029F000E702FD1AB6958C212380BA00B3D5E70211
:102A000063F0E70CA147631EF7001C40858B91CB58
:102A100058401C4863C7E70093070003A38FFAFEE2
:102A2000FD1A3306564110C84E87CA867000A2852B
:102A30002685EFF09FD57D5A631D450B7D55B2501D
:102A4000225492540259F249624AD24A424B456199
:102A50008280A382D504970600009386E6740C401A
:102A6000084313F805081C411105630D080208C34B
:102A700013F7150001C793E505020CC04147B9FBE8
:102A80000C4093F5F5FD0CC0B1B79C4193E70702EC
:102A90009CC193078007A302F40497060000938665
:102AA000E67175BF13F8050408C3E30308FCC20709
:102AB000C1837DBF970600009386066F214719BF2B
:102AC000AE8735B794411C43CC4913F806081385EB
:102AD00047006306080008C39C438CC339A008C3A1
:102AE00093F606049C43F5DA8EA323280400B28AE9
:102AF00025BF14485686CA8526858299E30045F588
:102B00001C40898B8DE7B2474844E35AF5F23E8575
:102B10003DB785465686CA8526858299E30065F3CA
:102B2000050A5C443247998FE345FAFEE9BF014A42
:102B3000930A94017D5BF5B7411122C42A842E8546
:102B400023A6018E06C6EFE07FDCFD576317F50074
:102B50009387C18E9C4391C31CC0B2402244410163
:102B60008280411122C42E848395E50006C6792215
:102B7000634905007C48AA977CC8B24022444101C1
:102B800082805E247D777D17F98F5EA4FDB7DE25F8
:102B9000011122CC26CA4AC84EC606CE93F70710AA
:102BA000AA842E843289B68991C78395E500894627
:102BB000014609225E247D777D17F98F5EA4831577
:102BC000E4006244F240CE864A86B24942492685F4
:102BD000D244056125A8411122C42E848395E500C5
:102BE00006C6C928FD575A24631AF500FD77FD175C
:102BF000F98F5EA4B2402244410182808567D98F5B
:102C00005EA468C8C5BF8395E50005A8411122C42C
:102C10002A842E85B285368623A6018E06C6EFE06D
:102C20005FCBFD576317F5009387C18E9C4391C31B
:102C30001CC0B240224441018280411122C42A8436
:102C40002E8523A6018E06C6C520FD576317F50005
:102C50009387C18E9C4391C31CC0B2402244410162
:102C60008280411122C42A842E85B28523A6018E3A
:102C700006C6C920FD576317F5009387C18E9C4394
:102C800091C31CC0B240224441018280411122C440
:102C90002A842E8523A6018E06C65D20FD57631764
:102CA000F5009387C18E9C4391C31CC0B24022445F
:102CB00041018280411122C42A842E85B285368644
:102CC00023A6018E06C65920FD576317F50093878A
:102CD000C18E9C4391C31CC0B240224441018280FA
:102CE00093F5F50F2A966314C500014582801C21D7
:102CF000E38EB7FE0505C5BF82808280411122C4E4
:102D00002A842E85B285368623A6018E06C6A92082
:102D1000FD576317F5009387C18E9C4391C31CC078
:102D2000B2402244410182809307800523A6F18EA0
:102D30007D5582809307800523A6F18E7D55828084
:102D40009307800523A6F18E0145828093078005B5
:102D500023A6F18E7D5582809307800523A6F18EF0
:102D60007D558280D602000000030000160300009B
:102D70002C030000600300007C0300004D20537909
:102D80007374656D436C6B3A25640D0A0000000096
:102D90004D204368697049443A253038780D0A005F
:102DA0004D20504420534E4B20544553540D0000A9
:102DB0004D3A4343204E4F5420434F4E4E454354CB
:102DC00045440D004D3A50575220524551554553F8
:102DD0005420535543434553530D00004D3A534936
:102DE000472052455155455354205355434345536D
:102DF000530D00004850445F56414C5545A3BA2539
:102E0000640D0A004D3A454E54455220504400008E
:102E100070646F5F696E646578206572726F72218D
:102E20000D000000526571756573743A0D0A4375A3
:102E30007272656E743A2564206D410D0A566F6C8E
:102E4000746167653A2564206D560D0A0000000024
:102E5000434325642053524320436F6E6E65637471
:102E60000D0A00002A0B0000840B0000D60B0000A6
:102E70001E0C0000620C0000720C00006E0C0000C2
:102E80006E0C00006E0C00006E0C00006E0C00005A
:102E90006E0C00006E0C00006E0C00006E0C00004A
:102EA0007C0C0000C40C0000380D0000A80E0000CF
:102EB0009E0D0000A80E0000A80E0000BA0D000034
:102EC000A80E0000F40D0000A80E0000A80E0000DF
:102ED000820E0000E60D00001A0E0000A80E000091
:102EE000980E0000A80E00003A0E0000600E0000D0
:102EF0004D3A446973636F6E6E6563740D00000034
:102F000049313A52454345495645205352435F4360
:102F100041500D00534F5552434520535550504F8B
:102F200052543A0D0000000050444F3A25642025C9
:102F3000646D560D0A00000049313A524543454937
:102F40005645204143434550540D000049313A5203
:102F50004543454956452050535F5244590D0000A2
:102F6000706F77657220737563636573730D00000E
:102F700049313A5245434549564520574149540D38
:102F80000000000049313A52454345495645204723
:102F900045545F534E4B5F4341500D0049313A5207
:102FA00045434549564520534F46545F5245534586
:102FB000540D000049313A52454345495645204792
:102FC00045545F5352435F4341505F45580D0000E5
:102FD00049313A52454345495645204745545F5388
:102FE00054415455530D000049313A524543454927
:102FF00056452056434F4E4E5F535741500D0000EB
:1030000049313A524543454956452056454E444F6D
:10301000525F444546494E45440D0000556E737558
:1030200070706F7274656420436F6D6D616E640DB6
:103030000000000049303A414E5357455220474F57
:103040004F444352430D000049303A5245434549ED
:1030500056454420474F4F444352430D0000000063
:1030600049303A49465F52585F52455345540D0026
:1030700049323A446973636F766572204964656EBC
:10308000746974792072656365697665640D000002
:1030900049323A446973636F7665722053564944E6
:1030A000732072656365697665640D0049323A4440
:1030B0006973636F766572204D6F64657320726506
:1030C0006365697665640D0049323A456E746572D0
:1030D0004D6F64652072656365697665640D0000F7
:1030E00049323A76646D2030350D000049323A7627
:1030F000646D2030360D000049323A4470737461BB
:103100007355706461746520726563656976656482
:103110000D00000049323A445020436F6E666775D7
:1031200072652072656365697665640D0000000054
:10313000000000000000000000000000000000008F
:10314000000000000000000000000000000000007F
:10315000000000000000000000000000000000006F
:10316000000000000000000000000000000000005F
:10317000000000000000000000000000000000004F
:10318000000000000000000000000000000000003F
:10319000232D302B20000000686C4C0065666745CD
:1031A0004647000030313233343536373839414202
:1031B0004344454600000000303132333435363761
:0C31C0003839616263646566000000003D
:1031CC0001020304050607080102030405060708AB
:1031DC005C1D006C46420F0006070271DB000011FB
:1031EC0018806300000000000000010000000703CD
:1031FC0000000000000000030012000001020304A4
:10320C000506070801020304050607080000000074
:10321C00503100007031000030310000000000001F
:10322C000000000000000000000000000000000092
:10323C000000000000000000000000000000000082
:10324C000000000000000000000000000000000072
:10325C000000000000000000000000000000000062
:10326C000000000000000000000000000000000052
:10327C00006CDC022C91013E0A00000045000400A9
:10328C00000001FF068101FF8A000000068101FF9A
:10329C000A00000064900136068016000000000051
:1032AC00444444444444444444444444A001002021
:0832BC004C0000204C00002032
:00000001FF
